{
  "contractName": "InsuranceContractStepChallenge",
  "abi": [
    {
      "inputs": [
        {
          "name": "_insurees",
          "type": "address[]"
        },
        {
          "name": "_insurer",
          "type": "address"
        },
        {
          "name": "_trustedDoctor",
          "type": "address"
        }
      ],
      "payable": true,
      "stateMutability": "payable",
      "type": "constructor"
    },
    {
      "constant": false,
      "inputs": [],
      "name": "processMonth",
      "outputs": [],
      "payable": false,
      "stateMutability": "nonpayable",
      "type": "function"
    },
    {
      "constant": false,
      "inputs": [
        {
          "name": "p_insuree",
          "type": "address"
        }
      ],
      "name": "validateClaim",
      "outputs": [],
      "payable": false,
      "stateMutability": "nonpayable",
      "type": "function"
    },
    {
      "constant": false,
      "inputs": [],
      "name": "reject",
      "outputs": [],
      "payable": false,
      "stateMutability": "nonpayable",
      "type": "function"
    }
  ],
  "bytecode": "0x608060405261c350600055600260005481151561001857fe5b046001556207a120600255612710600a556040516108303803806108308339810180604052606081101561004b57600080fd5b81019080805164010000000081111561006357600080fd5b8281019050602081018481111561007957600080fd5b815185602082028301116401000000008211171561009657600080fd5b5050929190602001805190602001909291908051906020019092919050505082600490805190602001906100cb929190610197565b5081600360006101000a81548173ffffffffffffffffffffffffffffffffffffffff021916908373ffffffffffffffffffffffffffffffffffffffff16021790555080600560006101000a81548173ffffffffffffffffffffffffffffffffffffffff021916908373ffffffffffffffffffffffffffffffffffffffff16021790555033600b60006101000a81548173ffffffffffffffffffffffffffffffffffffffff021916908373ffffffffffffffffffffffffffffffffffffffff160217905550505050610264565b828054828255906000526020600020908101928215610210579160200282015b8281111561020f5782518260006101000a81548173ffffffffffffffffffffffffffffffffffffffff021916908373ffffffffffffffffffffffffffffffffffffffff160217905550916020019190600101906101b7565b5b50905061021d9190610221565b5090565b61026191905b8082111561025d57600081816101000a81549073ffffffffffffffffffffffffffffffffffffffff021916905550600101610227565b5090565b90565b6105bd806102736000396000f3fe608060405260043610610057576000357c0100000000000000000000000000000000000000000000000000000000900463ffffffff1680634dc415de1461005c578063987b39ef14610073578063cd09b6c3146100c4575b600080fd5b34801561006857600080fd5b506100716100db565b005b34801561007f57600080fd5b506100c26004803603602081101561009657600080fd5b81019080803573ffffffffffffffffffffffffffffffffffffffff1690602001909291905050506101db565b005b3480156100d057600080fd5b506100d96102fb565b005b600b60009054906101000a900473ffffffffffffffffffffffffffffffffffffffff1673ffffffffffffffffffffffffffffffffffffffff163373ffffffffffffffffffffffffffffffffffffffff161415156101a0576040517f08c379a000000000000000000000000000000000000000000000000000000000815260040180806020018281038252600d8152602001807f4e6f7420746865206f776e65720000000000000000000000000000000000000081525060200191505060405180910390fd5b600b60009054906101000a900473ffffffffffffffffffffffffffffffffffffffff1673ffffffffffffffffffffffffffffffffffffffff16ff5b600560009054906101000a900473ffffffffffffffffffffffffffffffffffffffff1673ffffffffffffffffffffffffffffffffffffffff163373ffffffffffffffffffffffffffffffffffffffff161415156102a0576040517f08c379a000000000000000000000000000000000000000000000000000000000815260040180806020018281038252601a8152602001807f4e6f20726967687420746f2076616c696461746520636c61696d00000000000081525060200191505060405180910390fd5b6001600960008373ffffffffffffffffffffffffffffffffffffffff1673ffffffffffffffffffffffffffffffffffffffff16815260200190815260200160002060006101000a81548160ff02191690831515021790555050565b600660009054906101000a900473ffffffffffffffffffffffffffffffffffffffff1673ffffffffffffffffffffffffffffffffffffffff163373ffffffffffffffffffffffffffffffffffffffff161415156103e6576040517f08c379a00000000000000000000000000000000000000000000000000000000081526004018080602001828103825260218152602001807f49742773206e6f742074686520656e64206f6620746865206d6f6e746820796581526020017f740000000000000000000000000000000000000000000000000000000000000081525060400191505060405180910390fd5b60008090505b60048054905081101561058e57600060048281548110151561040a57fe5b9060005260206000200160009054906101000a900473ffffffffffffffffffffffffffffffffffffffff169050600960008273ffffffffffffffffffffffffffffffffffffffff1673ffffffffffffffffffffffffffffffffffffffff16815260200190815260200160002060009054906101000a900460ff1680156104d95750600860008273ffffffffffffffffffffffffffffffffffffffff1673ffffffffffffffffffffffffffffffffffffffff16815260200190815260200160002060009054906101000a900460ff165b15610528578073ffffffffffffffffffffffffffffffffffffffff166108fc6002549081150290604051600060405180830381858888f19350505050158015610526573d6000803e3d6000fd5b505b6000600860008373ffffffffffffffffffffffffffffffffffffffff1673ffffffffffffffffffffffffffffffffffffffff16815260200190815260200160002060006101000a81548160ff0219169083151502179055505080806001019150506103ec565b5056fea165627a7a72305820d37e5117bf60a1caaf080494b61918177ae66a469e8607373e12bced609ca0aa0029",
  "source": "pragma solidity ^0.5.0;\r\n//pragma experimental ABIEncoderV2;\r\n\r\ncontract InsuranceContractStepChallenge {\r\n    \r\n    uint MONTHLY_FEE=50000;\r\n    uint REDUCED_MONTHLY_FEE=MONTHLY_FEE/2;\r\n    uint PAYOUT=500000;\r\n\r\n    address payable insurer;\r\n    address payable[] insurees;\r\n    address trustedDoctor;\r\n  \r\n    address alarm;\r\n  \r\n    mapping (address => bool) succeededStepChallenge;\r\n    mapping (address => bool) paidForMonth;\r\n    mapping (address => bool) validClaim;\r\n    \r\n    uint stepTarget=10000;\r\n    \r\n    address payable owner;\r\n    \r\n    \r\n    constructor(\r\n        \r\n        address payable[] memory _insurees,\r\n        address payable  _insurer,\r\n        address _trustedDoctor\r\n        \r\n        ) public payable {\r\n            //require(_minApprovers <=_approvers.length, \"Required number of approvers should be less than approvers\");\r\n            \r\n            insurees=_insurees;\r\n            insurer=_insurer;\r\n            trustedDoctor=_trustedDoctor;\r\n            owner=msg.sender;\r\n            \r\n            /*for(uint i=0; i<_approvers.length;i++){\r\n                address approver = _approvers[i];\r\n                isApprover[approver] = true;\r\n            }*/\r\n            \r\n        }\r\n            \r\n    \r\n    function processMonth() public {\r\n        require(msg.sender==alarm, \"It's not the end of the month yet\");\r\n        \r\n        //processClaims\r\n         for(uint i=0; i<insurees.length;i++){\r\n             \r\n               address payable mi=insurees[i];\r\n                \r\n                if(validClaim[mi] && paidForMonth[mi]){\r\n                    mi.transfer(PAYOUT);\r\n                }\r\n                \r\n                paidForMonth[mi]=false;\r\n                \r\n                //TODO transfer money to insurer\r\n             \r\n                \r\n            }\r\n        \r\n    }\r\n    \r\n    \r\n    function validateClaim(address  p_insuree) public {\r\n        \r\n        require(msg.sender==trustedDoctor, \"No right to validate claim\");\r\n        validClaim[p_insuree]=true;\r\n\r\n    }\r\n    \r\n    function reject() public {\r\n        \r\n        require(msg.sender==owner, \"Not the owner\");\r\n        selfdestruct(owner);\r\n    }\r\n        \r\n    }",
  "sourcePath": "C:/Users/alexe/Desktop/IOTA BA/tLabsHack/contracts/InsuranceContractStepChallenge.sol",
  "compiler": {
    "name": "solc",
    "version": "0.5.0+commit.1d4f565a.Emscripten.clang"
  },
  "schemaVersion": "3.0.1",
  "updatedAt": "2019-01-20T10:17:57.439Z",
  "devdoc": {
    "methods": {}
  },
  "userdoc": {
    "methods": {}
  }
}